{
  "contractName": "Campaign",
  "abi": [
    {
      "inputs": [
        {
          "internalType": "string",
          "name": "_description",
          "type": "string"
        },
        {
          "internalType": "uint256",
          "name": "_target",
          "type": "uint256"
        },
        {
          "internalType": "uint256",
          "name": "_lifespan",
          "type": "uint256"
        }
      ],
      "stateMutability": "nonpayable",
      "type": "constructor"
    },
    {
      "stateMutability": "payable",
      "type": "fallback"
    },
    {
      "inputs": [],
      "name": "campaign_board",
      "outputs": [
        {
          "internalType": "string",
          "name": "",
          "type": "string"
        }
      ],
      "stateMutability": "view",
      "type": "function"
    },
    {
      "inputs": [],
      "name": "campaign_description",
      "outputs": [
        {
          "internalType": "string",
          "name": "",
          "type": "string"
        }
      ],
      "stateMutability": "view",
      "type": "function"
    },
    {
      "inputs": [
        {
          "internalType": "address",
          "name": "",
          "type": "address"
        }
      ],
      "name": "contributers",
      "outputs": [
        {
          "internalType": "bool",
          "name": "",
          "type": "bool"
        }
      ],
      "stateMutability": "view",
      "type": "function"
    },
    {
      "inputs": [
        {
          "internalType": "address",
          "name": "",
          "type": "address"
        }
      ],
      "name": "contributers_amount",
      "outputs": [
        {
          "internalType": "uint256",
          "name": "",
          "type": "uint256"
        }
      ],
      "stateMutability": "view",
      "type": "function"
    },
    {
      "inputs": [],
      "name": "contributers_count",
      "outputs": [
        {
          "internalType": "uint256",
          "name": "",
          "type": "uint256"
        }
      ],
      "stateMutability": "view",
      "type": "function"
    },
    {
      "inputs": [
        {
          "internalType": "uint256",
          "name": "",
          "type": "uint256"
        }
      ],
      "name": "contributers_list",
      "outputs": [
        {
          "internalType": "address",
          "name": "",
          "type": "address"
        }
      ],
      "stateMutability": "view",
      "type": "function"
    },
    {
      "inputs": [],
      "name": "end_timestamp",
      "outputs": [
        {
          "internalType": "uint256",
          "name": "",
          "type": "uint256"
        }
      ],
      "stateMutability": "view",
      "type": "function"
    },
    {
      "inputs": [],
      "name": "is_end",
      "outputs": [
        {
          "internalType": "bool",
          "name": "",
          "type": "bool"
        }
      ],
      "stateMutability": "view",
      "type": "function"
    },
    {
      "inputs": [],
      "name": "raiser",
      "outputs": [
        {
          "internalType": "address",
          "name": "",
          "type": "address"
        }
      ],
      "stateMutability": "view",
      "type": "function"
    },
    {
      "inputs": [],
      "name": "start_timestamp",
      "outputs": [
        {
          "internalType": "uint256",
          "name": "",
          "type": "uint256"
        }
      ],
      "stateMutability": "view",
      "type": "function"
    },
    {
      "inputs": [],
      "name": "target",
      "outputs": [
        {
          "internalType": "uint256",
          "name": "",
          "type": "uint256"
        }
      ],
      "stateMutability": "view",
      "type": "function"
    },
    {
      "stateMutability": "payable",
      "type": "receive"
    },
    {
      "inputs": [
        {
          "internalType": "address",
          "name": "add",
          "type": "address"
        }
      ],
      "name": "setRaiser",
      "outputs": [],
      "stateMutability": "nonpayable",
      "type": "function"
    },
    {
      "inputs": [
        {
          "internalType": "string",
          "name": "info",
          "type": "string"
        }
      ],
      "name": "customize",
      "outputs": [],
      "stateMutability": "nonpayable",
      "type": "function"
    },
    {
      "inputs": [],
      "name": "contribute",
      "outputs": [],
      "stateMutability": "payable",
      "type": "function"
    },
    {
      "inputs": [
        {
          "internalType": "string",
          "name": "_description",
          "type": "string"
        },
        {
          "internalType": "uint256",
          "name": "value",
          "type": "uint256"
        }
      ],
      "name": "createRequest",
      "outputs": [],
      "stateMutability": "nonpayable",
      "type": "function"
    },
    {
      "inputs": [
        {
          "internalType": "uint256",
          "name": "index",
          "type": "uint256"
        }
      ],
      "name": "approveRequest",
      "outputs": [],
      "stateMutability": "nonpayable",
      "type": "function"
    },
    {
      "inputs": [
        {
          "internalType": "uint256",
          "name": "index",
          "type": "uint256"
        }
      ],
      "name": "getRequestApprovementSum",
      "outputs": [
        {
          "internalType": "uint256",
          "name": "",
          "type": "uint256"
        }
      ],
      "stateMutability": "view",
      "type": "function"
    },
    {
      "inputs": [
        {
          "internalType": "uint256",
          "name": "index",
          "type": "uint256"
        }
      ],
      "name": "finalizeRequest",
      "outputs": [
        {
          "internalType": "string",
          "name": "",
          "type": "string"
        }
      ],
      "stateMutability": "nonpayable",
      "type": "function"
    },
    {
      "inputs": [],
      "name": "refund",
      "outputs": [
        {
          "internalType": "string",
          "name": "",
          "type": "string"
        }
      ],
      "stateMutability": "nonpayable",
      "type": "function"
    },
    {
      "inputs": [],
      "name": "getSummery",
      "outputs": [
        {
          "internalType": "address",
          "name": "",
          "type": "address"
        },
        {
          "internalType": "string",
          "name": "",
          "type": "string"
        },
        {
          "internalType": "string",
          "name": "",
          "type": "string"
        },
        {
          "internalType": "uint256",
          "name": "",
          "type": "uint256"
        },
        {
          "internalType": "uint256",
          "name": "",
          "type": "uint256"
        },
        {
          "internalType": "uint256",
          "name": "",
          "type": "uint256"
        }
      ],
      "stateMutability": "view",
      "type": "function"
    },
    {
      "inputs": [],
      "name": "getDetails",
      "outputs": [
        {
          "internalType": "uint256",
          "name": "",
          "type": "uint256"
        },
        {
          "internalType": "uint256",
          "name": "",
          "type": "uint256"
        },
        {
          "internalType": "bool",
          "name": "",
          "type": "bool"
        }
      ],
      "stateMutability": "view",
      "type": "function"
    },
    {
      "inputs": [],
      "name": "getContributers",
      "outputs": [
        {
          "internalType": "address[]",
          "name": "",
          "type": "address[]"
        }
      ],
      "stateMutability": "view",
      "type": "function"
    },
    {
      "inputs": [
        {
          "internalType": "address",
          "name": "add",
          "type": "address"
        }
      ],
      "name": "getContributerAmount",
      "outputs": [
        {
          "internalType": "uint256",
          "name": "",
          "type": "uint256"
        }
      ],
      "stateMutability": "view",
      "type": "function"
    },
    {
      "inputs": [
        {
          "internalType": "uint256",
          "name": "index",
          "type": "uint256"
        }
      ],
      "name": "getRequestSummery",
      "outputs": [
        {
          "internalType": "string",
          "name": "",
          "type": "string"
        },
        {
          "internalType": "uint256",
          "name": "",
          "type": "uint256"
        },
        {
          "internalType": "uint256",
          "name": "",
          "type": "uint256"
        },
        {
          "internalType": "uint256",
          "name": "",
          "type": "uint256"
        }
      ],
      "stateMutability": "view",
      "type": "function"
    },
    {
      "inputs": [
        {
          "internalType": "uint256",
          "name": "index",
          "type": "uint256"
        }
      ],
      "name": "getRequestDetails",
      "outputs": [
        {
          "internalType": "bool",
          "name": "",
          "type": "bool"
        },
        {
          "internalType": "uint256",
          "name": "",
          "type": "uint256"
        },
        {
          "internalType": "uint256",
          "name": "",
          "type": "uint256"
        }
      ],
      "stateMutability": "view",
      "type": "function"
    }
  ],
  "bytecode": "0x60806040523480156200001157600080fd5b50604051620035d7380380620035d783398181016040528101906200003791906200034c565b61016c81111580156200004b575060078110155b6200008d576040517f08c379a000000000000000000000000000000000000000000000000000000000815260040162000084906200044e565b60405180910390fd5b336000806101000a81548173ffffffffffffffffffffffffffffffffffffffff021916908373ffffffffffffffffffffffffffffffffffffffff160217905550426003819055506201518081620000e591906200049f565b600354620000f49190620004ea565b60048190555082600190816200010b919062000766565b506040518060400160405280601581526020017f4e65772043616d706169676e20637265617465640a00000000000000000000008152506002908162000152919062000766565b50816005819055506000600a60006101000a81548160ff0219169083151502179055505050506200084d565b6000604051905090565b600080fd5b600080fd5b600080fd5b600080fd5b6000601f19601f8301169050919050565b7f4e487b7100000000000000000000000000000000000000000000000000000000600052604160045260246000fd5b620001e7826200019c565b810181811067ffffffffffffffff82111715620002095762000208620001ad565b5b80604052505050565b60006200021e6200017e565b90506200022c8282620001dc565b919050565b600067ffffffffffffffff8211156200024f576200024e620001ad565b5b6200025a826200019c565b9050602081019050919050565b60005b83811015620002875780820151818401526020810190506200026a565b60008484015250505050565b6000620002aa620002a48462000231565b62000212565b905082815260208101848484011115620002c957620002c862000197565b5b620002d684828562000267565b509392505050565b600082601f830112620002f657620002f562000192565b5b81516200030884826020860162000293565b91505092915050565b6000819050919050565b620003268162000311565b81146200033257600080fd5b50565b60008151905062000346816200031b565b92915050565b60008060006060848603121562000368576200036762000188565b5b600084015167ffffffffffffffff8111156200038957620003886200018d565b5b6200039786828701620002de565b9350506020620003aa8682870162000335565b9250506040620003bd8682870162000335565b9150509250925092565b600082825260208201905092915050565b7f63616d706169676e206c6966657370616e206d757374206e6f7420657863656560008201527f6420333634206461797300000000000000000000000000000000000000000000602082015250565b600062000436602a83620003c7565b91506200044382620003d8565b604082019050919050565b60006020820190508181036000830152620004698162000427565b9050919050565b7f4e487b7100000000000000000000000000000000000000000000000000000000600052601160045260246000fd5b6000620004ac8262000311565b9150620004b98362000311565b9250828202620004c98162000311565b91508282048414831517620004e357620004e262000470565b5b5092915050565b6000620004f78262000311565b9150620005048362000311565b92508282019050808211156200051f576200051e62000470565b5b92915050565b600081519050919050565b7f4e487b7100000000000000000000000000000000000000000000000000000000600052602260045260246000fd5b600060028204905060018216806200057857607f821691505b6020821081036200058e576200058d62000530565b5b50919050565b60008190508160005260206000209050919050565b60006020601f8301049050919050565b600082821b905092915050565b600060088302620005f87fffffffffffffffffffffffffffffffffffffffffffffffffffffffffffffffff82620005b9565b620006048683620005b9565b95508019841693508086168417925050509392505050565b6000819050919050565b600062000647620006416200063b8462000311565b6200061c565b62000311565b9050919050565b6000819050919050565b620006638362000626565b6200067b62000672826200064e565b848454620005c6565b825550505050565b600090565b6200069262000683565b6200069f81848462000658565b505050565b5b81811015620006c757620006bb60008262000688565b600181019050620006a5565b5050565b601f8211156200071657620006e08162000594565b620006eb84620005a9565b81016020851015620006fb578190505b620007136200070a85620005a9565b830182620006a4565b50505b505050565b600082821c905092915050565b60006200073b600019846008026200071b565b1980831691505092915050565b600062000756838362000728565b9150826002028217905092915050565b620007718262000525565b67ffffffffffffffff8111156200078d576200078c620001ad565b5b6200079982546200055f565b620007a6828285620006cb565b600060209050601f831160018114620007de5760008415620007c9578287015190505b620007d5858262000748565b86555062000845565b601f198416620007ee8662000594565b60005b828110156200081857848901518255600182019150602085019450602081019050620007f1565b8683101562000838578489015162000834601f89168262000728565b8355505b6001600288020188555050505b505050505050565b612d7a806200085d6000396000f3fe60806040526004361061016a5760003560e01c8063aa6e90c0116100d1578063d7bb99ba1161008a578063f0a44d0111610064578063f0a44d011461053d578063f146b3d01461057d578063f34d4c63146105ad578063fbbf93a0146105ec57610171565b8063d7bb99ba146104e1578063d7d1bbdb146104eb578063e076454d1461051457610171565b8063aa6e90c0146103d1578063b1bd95e5146103fa578063be4f3b0b14610425578063c526ae3714610450578063d27d307c1461048d578063d4b83992146104b657610171565b80635589c799116101235780635589c799146102ab578063590e1ae3146102d65780635c0e1612146103015780635c479fe61461033e57806363ebef761461037b578063876ac3eb146103a657610171565b806303441006146101735780630574f590146101b0578063349a7583146101db57806334b66460146102065780633efb298414610243578063404efb881461028057610171565b3661017157005b005b34801561017f57600080fd5b5061019a60048036038101906101959190611cc6565b610619565b6040516101a79190611d83565b60405180910390f35b3480156101bc57600080fd5b506101c5610aa4565b6040516101d29190611d83565b60405180910390f35b3480156101e757600080fd5b506101f0610b32565b6040516101fd9190611d83565b60405180910390f35b34801561021257600080fd5b5061022d60048036038101906102289190611e03565b610bc0565b60405161023a9190611e4b565b60405180910390f35b34801561024f57600080fd5b5061026a60048036038101906102659190611cc6565b610be0565b6040516102779190611e75565b60405180910390f35b34801561028c57600080fd5b50610295610d0c565b6040516102a29190611f4e565b60405180910390f35b3480156102b757600080fd5b506102c0610d9a565b6040516102cd9190611e75565b60405180910390f35b3480156102e257600080fd5b506102eb610da0565b6040516102f89190611d83565b60405180910390f35b34801561030d57600080fd5b5061032860048036038101906103239190611e03565b610fc6565b6040516103359190611e75565b60405180910390f35b34801561034a57600080fd5b5061036560048036038101906103609190611e03565b61109b565b6040516103729190611e75565b60405180910390f35b34801561038757600080fd5b506103906110b3565b60405161039d9190611e75565b60405180910390f35b3480156103b257600080fd5b506103bb6110b9565b6040516103c89190611e75565b60405180910390f35b3480156103dd57600080fd5b506103f860048036038101906103f391906120a5565b6110bf565b005b34801561040657600080fd5b5061040f61130a565b60405161041c9190611e4b565b60405180910390f35b34801561043157600080fd5b5061043a61131d565b6040516104479190612110565b60405180910390f35b34801561045c57600080fd5b5061047760048036038101906104729190611cc6565b611341565b6040516104849190612110565b60405180910390f35b34801561049957600080fd5b506104b460048036038101906104af919061212b565b611380565b005b3480156104c257600080fd5b506104cb61140d565b6040516104d89190611e75565b60405180910390f35b6104e9611413565b005b3480156104f757600080fd5b50610512600480360381019061050d9190611cc6565b6116b4565b005b34801561052057600080fd5b5061053b60048036038101906105369190611e03565b61192a565b005b34801561054957600080fd5b50610564600480360381019061055f9190611cc6565b6119c5565b6040516105749493929190612174565b60405180910390f35b34801561058957600080fd5b50610592611a91565b6040516105a4969594939291906121c0565b60405180910390f35b3480156105b957600080fd5b506105d460048036038101906105cf9190611cc6565b611bf6565b6040516105e39392919061222f565b60405180910390f35b3480156105f857600080fd5b50610601611c56565b60405161061093929190612266565b60405180910390f35b606060008054906101000a900473ffffffffffffffffffffffffffffffffffffffff1673ffffffffffffffffffffffffffffffffffffffff163373ffffffffffffffffffffffffffffffffffffffff161461067357600080fd5b60045442106106b7576040517f08c379a00000000000000000000000000000000000000000000000000000000081526004016106ae906122e9565b60405180910390fd5b600c600083815260200190815260200160002060040160009054906101000a900460ff161561071b576040517f08c379a000000000000000000000000000000000000000000000000000000000815260040161071290612355565b60405180910390fd5b600c600083815260200190815260200160002060030154421015610774576040517f08c379a000000000000000000000000000000000000000000000000000000000815260040161076b906123c1565b60405180910390fd5b47600c60008481526020019081526020016000206001015411156107fe576001600c600084815260200190815260200160002060040160006101000a81548160ff0219169083151502179055506040518060400160405280601481526020017f496e73756666696369656e742042616c616e63650000000000000000000000008152509050610a9f565b60024761080b919061243f565b61081483610be0565b11610885576001600c600084815260200190815260200160002060040160006101000a81548160ff0219169083151502179055506040518060400160405280600e81526020017f526571756573742044656e6965640000000000000000000000000000000000008152509050610a9f565b60004790506000600c600085815260200190815260200160002060010154905060005b6007805490508110156109b7576000600782815481106108cb576108ca612470565b5b9060005260206000200160009054906101000a900473ffffffffffffffffffffffffffffffffffffffff16905083600960008373ffffffffffffffffffffffffffffffffffffffff1673ffffffffffffffffffffffffffffffffffffffff1681526020019081526020016000205484610944919061249f565b61094e919061243f565b600960008373ffffffffffffffffffffffffffffffffffffffff1673ffffffffffffffffffffffffffffffffffffffff168152602001908152602001600020600082825461099c91906124e1565b925050819055505080806109af90612515565b9150506108a8565b5060008054906101000a900473ffffffffffffffffffffffffffffffffffffffff1673ffffffffffffffffffffffffffffffffffffffff166108fc600c6000878152602001908152602001600020600101549081150290604051600060405180830381858888f19350505050158015610a34573d6000803e3d6000fd5b506001600c600086815260200190815260200160002060040160006101000a81548160ff0219169083151502179055506040518060400160405280601181526020017f5265717565737420537563636565646564000000000000000000000000000000815250925050505b919050565b60018054610ab19061258c565b80601f0160208091040260200160405190810160405280929190818152602001828054610add9061258c565b8015610b2a5780601f10610aff57610100808354040283529160200191610b2a565b820191906000526020600020905b815481529060010190602001808311610b0d57829003601f168201915b505050505081565b60028054610b3f9061258c565b80601f0160208091040260200160405190810160405280929190818152602001828054610b6b9061258c565b8015610bb85780601f10610b8d57610100808354040283529160200191610bb8565b820191906000526020600020905b815481529060010190602001808311610b9b57829003601f168201915b505050505081565b60086020528060005260406000206000915054906101000a900460ff1681565b6000806000905060005b600780549050811015610d0257600060078281548110610c0d57610c0c612470565b5b9060005260206000200160009054906101000a900473ffffffffffffffffffffffffffffffffffffffff169050600c600086815260200190815260200160002060070160008273ffffffffffffffffffffffffffffffffffffffff1673ffffffffffffffffffffffffffffffffffffffff16815260200190815260200160002060009054906101000a900460ff1615610cee57600960008273ffffffffffffffffffffffffffffffffffffffff1673ffffffffffffffffffffffffffffffffffffffff1681526020019081526020016000205483610ceb91906125bd565b92505b508080610cfa90612515565b915050610bea565b5080915050919050565b60606007805480602002602001604051908101604052809291908181526020018280548015610d9057602002820191906000526020600020905b8160009054906101000a900473ffffffffffffffffffffffffffffffffffffffff1673ffffffffffffffffffffffffffffffffffffffff1681526020019060010190808311610d46575b5050505050905090565b60065481565b6060600454421015610de7576040517f08c379a0000000000000000000000000000000000000000000000000000000008152600401610dde9061263d565b60405180910390fd5b60001515600a60009054906101000a900460ff16151514610e3d576040517f08c379a0000000000000000000000000000000000000000000000000000000008152600401610e34906122e9565b60405180910390fd5b6001600a60006101000a81548160ff02191690831515021790555060005b600780549050811015610f8a57600060078281548110610e7e57610e7d612470565b5b9060005260206000200160009054906101000a900473ffffffffffffffffffffffffffffffffffffffff1690508073ffffffffffffffffffffffffffffffffffffffff166108fc600960008473ffffffffffffffffffffffffffffffffffffffff1673ffffffffffffffffffffffffffffffffffffffff168152602001908152602001600020549081150290604051600060405180830381858888f19350505050158015610f30573d6000803e3d6000fd5b506000600960008373ffffffffffffffffffffffffffffffffffffffff1673ffffffffffffffffffffffffffffffffffffffff16815260200190815260200160002081905550508080610f8290612515565b915050610e5b565b506040518060400160405280601081526020017f526566756e642053756363656564656400000000000000000000000000000000815250905090565b6000600860008373ffffffffffffffffffffffffffffffffffffffff1673ffffffffffffffffffffffffffffffffffffffff16815260200190815260200160002060009054906101000a900460ff16611054576040517f08c379a000000000000000000000000000000000000000000000000000000000815260040161104b906126a9565b60405180910390fd5b600960008373ffffffffffffffffffffffffffffffffffffffff1673ffffffffffffffffffffffffffffffffffffffff168152602001908152602001600020549050919050565b60096020528060005260406000206000915090505481565b60035481565b60045481565b60008054906101000a900473ffffffffffffffffffffffffffffffffffffffff1673ffffffffffffffffffffffffffffffffffffffff163373ffffffffffffffffffffffffffffffffffffffff161461111757600080fd5b600454421061115b576040517f08c379a0000000000000000000000000000000000000000000000000000000008152600401611152906122e9565b60405180910390fd5b6000600b5411156111df5760011515600c60006001600b5461117d91906124e1565b815260200190815260200160002060040160009054906101000a900460ff161515146111de576040517f08c379a00000000000000000000000000000000000000000000000000000000081526004016111d59061273b565b60405180910390fd5b5b60045462093a80426111f191906125bd565b1115611232576040517f08c379a0000000000000000000000000000000000000000000000000000000008152600401611229906127a7565b60405180910390fd5b478110611274576040517f08c379a000000000000000000000000000000000000000000000000000000000815260040161126b90612813565b60405180910390fd5b6000600c6000600b600081548092919061128d90612515565b9190505581526020019081526020016000209050828160000190816112b291906129df565b5081816001018190555042816002018190555062093a806003546112d691906125bd565b816003018190555060008160040160006101000a81548160ff02191690831515021790555060008160050181905550505050565b600a60009054906101000a900460ff1681565b60008054906101000a900473ffffffffffffffffffffffffffffffffffffffff1681565b6007818154811061135157600080fd5b906000526020600020016000915054906101000a900473ffffffffffffffffffffffffffffffffffffffff1681565b60008054906101000a900473ffffffffffffffffffffffffffffffffffffffff1673ffffffffffffffffffffffffffffffffffffffff163373ffffffffffffffffffffffffffffffffffffffff16146113d857600080fd5b6002816040516020016113ec929190612b70565b6040516020818303038152906040526002908161140991906129df565b5050565b60055481565b6004544210611457576040517f08c379a000000000000000000000000000000000000000000000000000000000815260040161144e906122e9565b60405180910390fd5b600554473461146691906125bd565b11156114a7576040517f08c379a000000000000000000000000000000000000000000000000000000000815260040161149e90612be0565b60405180910390fd5b3073ffffffffffffffffffffffffffffffffffffffff166108fc349081150290604051600060405180830381858888f193505050501580156114ed573d6000803e3d6000fd5b50600860003373ffffffffffffffffffffffffffffffffffffffff1673ffffffffffffffffffffffffffffffffffffffff16815260200190815260200160002060009054906101000a900460ff1661165b576001600860003373ffffffffffffffffffffffffffffffffffffffff1673ffffffffffffffffffffffffffffffffffffffff16815260200190815260200160002060006101000a81548160ff0219169083151502179055506007339080600181540180825580915050600190039060005260206000200160009091909190916101000a81548173ffffffffffffffffffffffffffffffffffffffff021916908373ffffffffffffffffffffffffffffffffffffffff16021790555034600960003373ffffffffffffffffffffffffffffffffffffffff1673ffffffffffffffffffffffffffffffffffffffff168152602001908152602001600020819055506006600081548092919061165190612515565b91905055506116b2565b34600960003373ffffffffffffffffffffffffffffffffffffffff1673ffffffffffffffffffffffffffffffffffffffff16815260200190815260200160002060008282546116aa91906125bd565b925050819055505b565b60045442106116f8576040517f08c379a00000000000000000000000000000000000000000000000000000000081526004016116ef906122e9565b60405180910390fd5b600860003373ffffffffffffffffffffffffffffffffffffffff1673ffffffffffffffffffffffffffffffffffffffff16815260200190815260200160002060009054906101000a900460ff16611784576040517f08c379a000000000000000000000000000000000000000000000000000000000815260040161177b90612c4c565b60405180910390fd5b600c600082815260200190815260200160002060070160003373ffffffffffffffffffffffffffffffffffffffff1673ffffffffffffffffffffffffffffffffffffffff16815260200190815260200160002060009054906101000a900460ff1615611825576040517f08c379a000000000000000000000000000000000000000000000000000000000815260040161181c90612cb8565b60405180910390fd5b60001515600c600083815260200190815260200160002060040160009054906101000a900460ff1615151461188f576040517f08c379a000000000000000000000000000000000000000000000000000000000815260040161188690612d24565b60405180910390fd5b6001600c600083815260200190815260200160002060070160003373ffffffffffffffffffffffffffffffffffffffff1673ffffffffffffffffffffffffffffffffffffffff16815260200190815260200160002060006101000a81548160ff021916908315150217905550600c6000828152602001908152602001600020600501600081548092919061192290612515565b919050555050565b60008054906101000a900473ffffffffffffffffffffffffffffffffffffffff1673ffffffffffffffffffffffffffffffffffffffff163373ffffffffffffffffffffffffffffffffffffffff161461198257600080fd5b806000806101000a81548173ffffffffffffffffffffffffffffffffffffffff021916908373ffffffffffffffffffffffffffffffffffffffff16021790555050565b6060600080600080600c6000878152602001908152602001600020905080600001816001015482600201548360030154838054611a019061258c565b80601f0160208091040260200160405190810160405280929190818152602001828054611a2d9061258c565b8015611a7a5780601f10611a4f57610100808354040283529160200191611a7a565b820191906000526020600020905b815481529060010190602001808311611a5d57829003601f168201915b505050505093509450945094509450509193509193565b600060608060008060008060009054906101000a900473ffffffffffffffffffffffffffffffffffffffff1660016002600654600b54600554848054611ad69061258c565b80601f0160208091040260200160405190810160405280929190818152602001828054611b029061258c565b8015611b4f5780601f10611b2457610100808354040283529160200191611b4f565b820191906000526020600020905b815481529060010190602001808311611b3257829003601f168201915b50505050509450838054611b629061258c565b80601f0160208091040260200160405190810160405280929190818152602001828054611b8e9061258c565b8015611bdb5780601f10611bb057610100808354040283529160200191611bdb565b820191906000526020600020905b815481529060010190602001808311611bbe57829003601f168201915b50505050509350955095509550955095509550909192939495565b600080600080600c600086815260200190815260200160002090508060040160009054906101000a900460ff168160050154476064611c3489610be0565b611c3e919061249f565b611c48919061243f565b935093509350509193909250565b6000806000600354600454600a60009054906101000a900460ff16925092509250909192565b6000604051905090565b600080fd5b600080fd5b6000819050919050565b611ca381611c90565b8114611cae57600080fd5b50565b600081359050611cc081611c9a565b92915050565b600060208284031215611cdc57611cdb611c86565b5b6000611cea84828501611cb1565b91505092915050565b600081519050919050565b600082825260208201905092915050565b60005b83811015611d2d578082015181840152602081019050611d12565b60008484015250505050565b6000601f19601f8301169050919050565b6000611d5582611cf3565b611d5f8185611cfe565b9350611d6f818560208601611d0f565b611d7881611d39565b840191505092915050565b60006020820190508181036000830152611d9d8184611d4a565b905092915050565b600073ffffffffffffffffffffffffffffffffffffffff82169050919050565b6000611dd082611da5565b9050919050565b611de081611dc5565b8114611deb57600080fd5b50565b600081359050611dfd81611dd7565b92915050565b600060208284031215611e1957611e18611c86565b5b6000611e2784828501611dee565b91505092915050565b60008115159050919050565b611e4581611e30565b82525050565b6000602082019050611e606000830184611e3c565b92915050565b611e6f81611c90565b82525050565b6000602082019050611e8a6000830184611e66565b92915050565b600081519050919050565b600082825260208201905092915050565b6000819050602082019050919050565b611ec581611dc5565b82525050565b6000611ed78383611ebc565b60208301905092915050565b6000602082019050919050565b6000611efb82611e90565b611f058185611e9b565b9350611f1083611eac565b8060005b83811015611f41578151611f288882611ecb565b9750611f3383611ee3565b925050600181019050611f14565b5085935050505092915050565b60006020820190508181036000830152611f688184611ef0565b905092915050565b600080fd5b600080fd5b7f4e487b7100000000000000000000000000000000000000000000000000000000600052604160045260246000fd5b611fb282611d39565b810181811067ffffffffffffffff82111715611fd157611fd0611f7a565b5b80604052505050565b6000611fe4611c7c565b9050611ff08282611fa9565b919050565b600067ffffffffffffffff8211156120105761200f611f7a565b5b61201982611d39565b9050602081019050919050565b82818337600083830152505050565b600061204861204384611ff5565b611fda565b90508281526020810184848401111561206457612063611f75565b5b61206f848285612026565b509392505050565b600082601f83011261208c5761208b611f70565b5b813561209c848260208601612035565b91505092915050565b600080604083850312156120bc576120bb611c86565b5b600083013567ffffffffffffffff8111156120da576120d9611c8b565b5b6120e685828601612077565b92505060206120f785828601611cb1565b9150509250929050565b61210a81611dc5565b82525050565b60006020820190506121256000830184612101565b92915050565b60006020828403121561214157612140611c86565b5b600082013567ffffffffffffffff81111561215f5761215e611c8b565b5b61216b84828501612077565b91505092915050565b6000608082019050818103600083015261218e8187611d4a565b905061219d6020830186611e66565b6121aa6040830185611e66565b6121b76060830184611e66565b95945050505050565b600060c0820190506121d56000830189612101565b81810360208301526121e78188611d4a565b905081810360408301526121fb8187611d4a565b905061220a6060830186611e66565b6122176080830185611e66565b61222460a0830184611e66565b979650505050505050565b60006060820190506122446000830186611e3c565b6122516020830185611e66565b61225e6040830184611e66565b949350505050565b600060608201905061227b6000830186611e66565b6122886020830185611e66565b6122956040830184611e3c565b949350505050565b7f63616d706169676e20697320616c726561647920656e64000000000000000000600082015250565b60006122d3601783611cfe565b91506122de8261229d565b602082019050919050565b60006020820190508181036000830152612302816122c6565b9050919050565b7f616c7265616479206265656e20636f6d706c6574656400000000000000000000600082015250565b600061233f601683611cfe565b915061234a82612309565b602082019050919050565b6000602082019050818103600083015261236e81612332565b9050919050565b7f766f74696e6720706572696f64206973206e6f7420656e642079657400000000600082015250565b60006123ab601c83611cfe565b91506123b682612375565b602082019050919050565b600060208201905081810360008301526123da8161239e565b9050919050565b7f4e487b7100000000000000000000000000000000000000000000000000000000600052601260045260246000fd5b7f4e487b7100000000000000000000000000000000000000000000000000000000600052601160045260246000fd5b600061244a82611c90565b915061245583611c90565b925082612465576124646123e1565b5b828204905092915050565b7f4e487b7100000000000000000000000000000000000000000000000000000000600052603260045260246000fd5b60006124aa82611c90565b91506124b583611c90565b92508282026124c381611c90565b915082820484148315176124da576124d9612410565b5b5092915050565b60006124ec82611c90565b91506124f783611c90565b925082820390508181111561250f5761250e612410565b5b92915050565b600061252082611c90565b91507fffffffffffffffffffffffffffffffffffffffffffffffffffffffffffffffff820361255257612551612410565b5b600182019050919050565b7f4e487b7100000000000000000000000000000000000000000000000000000000600052602260045260246000fd5b600060028204905060018216806125a457607f821691505b6020821081036125b7576125b661255d565b5b50919050565b60006125c882611c90565b91506125d383611c90565b92508282019050808211156125eb576125ea612410565b5b92915050565b7f63616d706169676e206973206e6f7420656e6420796574000000000000000000600082015250565b6000612627601783611cfe565b9150612632826125f1565b602082019050919050565b600060208201905081810360008301526126568161261a565b9050919050565b7f6e6f74206120636f6e7472696275746572000000000000000000000000000000600082015250565b6000612693601183611cfe565b915061269e8261265d565b602082019050919050565b600060208201905081810360008301526126c281612686565b9050919050565b7f70726576696f75732072657175657374206973206e6f7420636f6d706c65746560008201527f6420796574000000000000000000000000000000000000000000000000000000602082015250565b6000612725602583611cfe565b9150612730826126c9565b604082019050919050565b6000602082019050818103600083015261275481612718565b9050919050565b7f6c6966657370616e206572726f72000000000000000000000000000000000000600082015250565b6000612791600e83611cfe565b915061279c8261275b565b602082019050919050565b600060208201905081810360008301526127c081612784565b9050919050565b7f76616c7565206572726f72000000000000000000000000000000000000000000600082015250565b60006127fd600b83611cfe565b9150612808826127c7565b602082019050919050565b6000602082019050818103600083015261282c816127f0565b9050919050565b60008190508160005260206000209050919050565b60006020601f8301049050919050565b600082821b905092915050565b6000600883026128957fffffffffffffffffffffffffffffffffffffffffffffffffffffffffffffffff82612858565b61289f8683612858565b95508019841693508086168417925050509392505050565b6000819050919050565b60006128dc6128d76128d284611c90565b6128b7565b611c90565b9050919050565b6000819050919050565b6128f6836128c1565b61290a612902826128e3565b848454612865565b825550505050565b600090565b61291f612912565b61292a8184846128ed565b505050565b5b8181101561294e57612943600082612917565b600181019050612930565b5050565b601f8211156129935761296481612833565b61296d84612848565b8101602085101561297c578190505b61299061298885612848565b83018261292f565b50505b505050565b600082821c905092915050565b60006129b660001984600802612998565b1980831691505092915050565b60006129cf83836129a5565b9150826002028217905092915050565b6129e882611cf3565b67ffffffffffffffff811115612a0157612a00611f7a565b5b612a0b825461258c565b612a16828285612952565b600060209050601f831160018114612a495760008415612a37578287015190505b612a4185826129c3565b865550612aa9565b601f198416612a5786612833565b60005b82811015612a7f57848901518255600182019150602085019450602081019050612a5a565b86831015612a9c5784890151612a98601f8916826129a5565b8355505b6001600288020188555050505b505050505050565b600081905092915050565b60008154612ac98161258c565b612ad38186612ab1565b94506001821660008114612aee5760018114612b0357612b36565b60ff1983168652811515820286019350612b36565b612b0c85612833565b60005b83811015612b2e57815481890152600182019150602081019050612b0f565b838801955050505b50505092915050565b6000612b4a82611cf3565b612b548185612ab1565b9350612b64818560208601611d0f565b80840191505092915050565b6000612b7c8285612abc565b9150612b888284612b3f565b91508190509392505050565b7f6578636565642074617267657400000000000000000000000000000000000000600082015250565b6000612bca600d83611cfe565b9150612bd582612b94565b602082019050919050565b60006020820190508181036000830152612bf981612bbd565b9050919050565b7f6e6f7420636f6e74726962757465720000000000000000000000000000000000600082015250565b6000612c36600f83611cfe565b9150612c4182612c00565b602082019050919050565b60006020820190508181036000830152612c6581612c29565b9050919050565b7f616c726561647920617070726f76656400000000000000000000000000000000600082015250565b6000612ca2601083611cfe565b9150612cad82612c6c565b602082019050919050565b60006020820190508181036000830152612cd181612c95565b9050919050565b7f766f74696e6720706572696f6420697320656e64000000000000000000000000600082015250565b6000612d0e601483611cfe565b9150612d1982612cd8565b602082019050919050565b60006020820190508181036000830152612d3d81612d01565b905091905056fea26469706673582212206474c83b4eb35b7975c39d70f1d7f41fe1b5ed5dde020d2f0bc86a38b718604f64736f6c63430008130033",
  "immutableReferences": {},
  "source": "// SPDX-License-Identifier: MIT\npragma solidity >=0.8.12 <0.9.0;\n\ncontract Campaign {\n\n    address public raiser;\n    string public campaign_description; //description of the campaign\n    string public campaign_board; //\n    uint public start_timestamp;\n    uint public end_timestamp;\n    uint public target;\n    uint public contributers_count;\n\n    address[] public contributers_list;\n    mapping(address => bool) public contributers;\n    mapping(address => uint) public contributers_amount;\n\n    bool public is_end;\n\n\n    struct Request {\n        string request_description;\n        uint value;\n        uint start_timestamp;\n        uint end_timestamp;\n        bool is_completed;\n        uint approvalCount;\n        uint approvalPower;\n        mapping(address => bool) approvals;\n    }\n\n    uint numRequests;\n    mapping (uint => Request) requests;\n\n    modifier restricted_raiser() {\n        require(msg.sender == raiser);\n        _;\n    }\n\n    constructor(string memory _description, uint _target, uint _lifespan) {\n        require(_lifespan <= 364 && _lifespan >= 7, \"campaign lifespan must not exceed 364 days\");\n\n        raiser = msg.sender; //\n        start_timestamp = block.timestamp;\n        //end_timestamp = start_timestamp + (_lifespan * 1 minutes); //for test\n        end_timestamp = start_timestamp + (_lifespan * 1 days);\n        campaign_description = _description;\n        campaign_board = \"New Campaign created\\n\";\n        target = _target;\n        is_end = false;\n    }\n\n    function setRaiser(address add) public restricted_raiser {\n        raiser = add;\n    }\n\n    function customize(string memory info) public restricted_raiser {\n        campaign_board = string.concat(campaign_board, info);\n    }\n\n    function contribute() payable public{\n        require(block.timestamp < end_timestamp, \"campaign is already end\");\n        require(msg.value + address(this).balance <= target, \"exceed target\");\n\n        payable(address(this)).transfer(msg.value);\n        if (!contributers[msg.sender]) {\n            contributers[msg.sender] = true;\n            contributers_list.push(msg.sender);\n            contributers_amount[msg.sender] = msg.value;\n            contributers_count++;\n        } else {\n            contributers_amount[msg.sender] += msg.value;\n        }\n    }\n\n    /************ request functions ************/\n\n    function createRequest(string memory _description, uint value) external restricted_raiser {\n        require(block.timestamp < end_timestamp, \"campaign is already end\");\n\n        if (numRequests > 0) {\n            require(requests[numRequests-1].is_completed == true, \"previous request is not completed yet\");    \n        }\n        //require(block.timestamp + (3 * 1 minutes) <= end_timestamp, \"lifespan error\");\n        require(block.timestamp + (7 * 1 days) <= end_timestamp, \"lifespan error\");\n        require(value < address(this).balance, \"value error\");\n        \n        Request storage r = requests[numRequests++];\n        r.request_description = _description;\n        r.value = value;\n        r.start_timestamp = block.timestamp;\n        //r.end_timestamp = start_timestamp + (3 * 1 minutes); // for testing\n        r.end_timestamp = start_timestamp + (7 * 1 days);\n        r.is_completed = false;\n        r.approvalCount = 0;\n    }\n    \n    function approveRequest(uint index) external {\n        require(block.timestamp < end_timestamp, \"campaign is already end\");\n        require(contributers[msg.sender], \"not contributer\");\n        require(!requests[index].approvals[msg.sender], \"already approved\");\n        require(requests[index].is_completed == false, \"voting period is end\");\n\n        requests[index].approvals[msg.sender] = true;\n        requests[index].approvalCount++;\n    }\n\n    function getRequestApprovementSum(uint index) public view returns (uint) {\n        uint sum = 0;\n        for (uint i=0; i<contributers_list.length; i++) {\n            address cur = contributers_list[i];\n            if (requests[index].approvals[cur]) {\n                sum += contributers_amount[cur];\n            }\n        }\n        return sum;\n    }\n\n    function finalizeRequest(uint index) restricted_raiser external returns (string memory) {\n        require(block.timestamp < end_timestamp, \"campaign is already end\");\n        require(!requests[index].is_completed, \"already been completed\");\n        require(block.timestamp >= requests[index].end_timestamp, \"voting period is not end yet\");\n\n        if (requests[index].value > address(this).balance) { //insufficient balance\n            requests[index].is_completed = true;\n            return \"Insufficient Balance\";\n        }\n        if (getRequestApprovementSum(index) <= (address(this).balance / 2)) { //less than 50%\n            requests[index].is_completed = true;\n            return \"Request Denied\";\n        }\n\n        uint previous_balance = address(this).balance;\n        uint withdraw_value = requests[index].value;\n        for (uint i=0; i<contributers_list.length; i++) {\n            address cur = contributers_list[i];\n            contributers_amount[cur] -= withdraw_value * contributers_amount[cur]/previous_balance;\n        }\n        payable(raiser).transfer(requests[index].value);\n        requests[index].is_completed = true;\n        return \"Request Succeeded\";\n    }\n\n    /************ refund functions ************/\n\n    function refund() external returns (string memory) {\n        require(block.timestamp >= end_timestamp, \"campaign is not end yet\");\n        require(is_end == false, \"campaign is already end\");\n\n        is_end = true;\n        for (uint i=0; i<contributers_list.length; i++) {\n            address cur = contributers_list[i];\n            payable(cur).transfer(contributers_amount[cur]);\n            contributers_amount[cur] = 0; \n        }\n        return \"Refund Succeeded\";\n\n    }\n\n    /************ query functions ************/\n\n    function getSummery() external view returns (address, string memory, string memory, uint, uint, uint) {\n        return (\n            raiser,\n            campaign_description,\n            campaign_board,\n            contributers_count,\n            numRequests,\n            target\n        );\n    }\n\n    function getDetails() external view returns (uint, uint, bool) {\n        return (\n            start_timestamp,\n            end_timestamp,\n            is_end\n        );\n    }\n\n    function getContributers() external view returns (address[] memory) {\n        return contributers_list;\n    }\n\n    function getContributerAmount(address add) external view returns (uint) {\n        require (contributers[add], \"not a contributer\");\n        return contributers_amount[add];\n    }\n\n    function getRequestSummery(uint index) external view returns (string memory, uint, uint, uint) {\n        Request storage r = requests[index];\n        return (\n            r.request_description,\n            r.value,\n            r.start_timestamp,\n            r.end_timestamp\n        );\n    }\n\n    function getRequestDetails(uint index) external view returns (bool, uint, uint) {\n        Request storage r = requests[index];\n        return (\n            r.is_completed,\n            r.approvalCount,\n            getRequestApprovementSum(index) * 100 / address(this).balance\n        );\n    }\n\n    fallback() external payable {}\n    \n    receive() external payable {}\n\n\n}",
  "sourcePath": "D:\\year4sem2\\evmos\\campaign\\cosmoprj\\contracts\\Campaign.sol",
  "compiler": {
    "name": "solc",
    "version": "0.8.19+commit.7dd6d404.Emscripten.clang"
  },
  "schemaVersion": "3.4.13",
  "updatedAt": "2023-04-16T10:34:22.659Z",
  "networkType": "ethereum",
  "devdoc": {
    "kind": "dev",
    "methods": {},
    "version": 1
  },
  "userdoc": {
    "kind": "user",
    "methods": {},
    "version": 1
  }
}