{
  "contractName": "HelloFactory",
  "abi": [
    {
      "inputs": [
        {
          "internalType": "uint256",
          "name": "",
          "type": "uint256"
        }
      ],
      "name": "deployedHello",
      "outputs": [
        {
          "internalType": "address",
          "name": "",
          "type": "address"
        }
      ],
      "stateMutability": "view",
      "type": "function"
    },
    {
      "inputs": [
        {
          "internalType": "string",
          "name": "tmp",
          "type": "string"
        }
      ],
      "name": "createHello",
      "outputs": [],
      "stateMutability": "nonpayable",
      "type": "function"
    },
    {
      "inputs": [],
      "name": "getDeployedCampaigns",
      "outputs": [
        {
          "internalType": "address[]",
          "name": "",
          "type": "address[]"
        }
      ],
      "stateMutability": "view",
      "type": "function"
    }
  ],
  "bytecode": "0x608060405234801561001057600080fd5b50610f05806100206000396000f3fe60806040523480156200001157600080fd5b5060043610620000465760003560e01c806345cbbae6146200004b5780634acb9d4f146200006b578063e767616e146200008d575b600080fd5b620000696004803603810190620000639190620003bb565b620000c3565b005b6200007562000167565b6040516200008491906200050e565b60405180910390f35b620000ab6004803603810190620000a591906200056d565b620001f7565b604051620000ba9190620005b0565b60405180910390f35b600081604051620000d49062000237565b620000e0919062000656565b604051809103906000f080158015620000fd573d6000803e3d6000fd5b5090506000819080600181540180825580915050600190039060005260206000200160009091909190916101000a81548173ffffffffffffffffffffffffffffffffffffffff021916908373ffffffffffffffffffffffffffffffffffffffff1602179055505050565b60606000805480602002602001604051908101604052809291908181526020018280548015620001ed57602002820191906000526020600020905b8160009054906101000a900473ffffffffffffffffffffffffffffffffffffffff1673ffffffffffffffffffffffffffffffffffffffff1681526020019060010190808311620001a2575b5050505050905090565b600081815481106200020857600080fd5b906000526020600020016000915054906101000a900473ffffffffffffffffffffffffffffffffffffffff1681565b610855806200067b83390190565b6000604051905090565b600080fd5b600080fd5b600080fd5b600080fd5b6000601f19601f8301169050919050565b7f4e487b7100000000000000000000000000000000000000000000000000000000600052604160045260246000fd5b620002ae8262000263565b810181811067ffffffffffffffff82111715620002d057620002cf62000274565b5b80604052505050565b6000620002e562000245565b9050620002f38282620002a3565b919050565b600067ffffffffffffffff82111562000316576200031562000274565b5b620003218262000263565b9050602081019050919050565b82818337600083830152505050565b6000620003546200034e84620002f8565b620002d9565b9050828152602081018484840111156200037357620003726200025e565b5b620003808482856200032e565b509392505050565b600082601f830112620003a0576200039f62000259565b5b8135620003b28482602086016200033d565b91505092915050565b600060208284031215620003d457620003d36200024f565b5b600082013567ffffffffffffffff811115620003f557620003f462000254565b5b620004038482850162000388565b91505092915050565b600081519050919050565b600082825260208201905092915050565b6000819050602082019050919050565b600073ffffffffffffffffffffffffffffffffffffffff82169050919050565b6000620004658262000438565b9050919050565b620004778162000458565b82525050565b60006200048b83836200046c565b60208301905092915050565b6000602082019050919050565b6000620004b1826200040c565b620004bd818562000417565b9350620004ca8362000428565b8060005b8381101562000501578151620004e588826200047d565b9750620004f28362000497565b925050600181019050620004ce565b5085935050505092915050565b600060208201905081810360008301526200052a8184620004a4565b905092915050565b6000819050919050565b620005478162000532565b81146200055357600080fd5b50565b60008135905062000567816200053c565b92915050565b6000602082840312156200058657620005856200024f565b5b6000620005968482850162000556565b91505092915050565b620005aa8162000458565b82525050565b6000602082019050620005c760008301846200059f565b92915050565b600081519050919050565b600082825260208201905092915050565b60005b8381101562000609578082015181840152602081019050620005ec565b60008484015250505050565b60006200062282620005cd565b6200062e8185620005d8565b935062000640818560208601620005e9565b6200064b8162000263565b840191505092915050565b6000602082019050818103600083015262000672818462000615565b90509291505056fe60806040523480156200001157600080fd5b5060405162000855380380620008558339818101604052810190620000379190620001e3565b80600090816200004891906200047f565b505062000566565b6000604051905090565b600080fd5b600080fd5b600080fd5b600080fd5b6000601f19601f8301169050919050565b7f4e487b7100000000000000000000000000000000000000000000000000000000600052604160045260246000fd5b620000b9826200006e565b810181811067ffffffffffffffff82111715620000db57620000da6200007f565b5b80604052505050565b6000620000f062000050565b9050620000fe8282620000ae565b919050565b600067ffffffffffffffff8211156200012157620001206200007f565b5b6200012c826200006e565b9050602081019050919050565b60005b83811015620001595780820151818401526020810190506200013c565b60008484015250505050565b60006200017c620001768462000103565b620000e4565b9050828152602081018484840111156200019b576200019a62000069565b5b620001a884828562000139565b509392505050565b600082601f830112620001c857620001c762000064565b5b8151620001da84826020860162000165565b91505092915050565b600060208284031215620001fc57620001fb6200005a565b5b600082015167ffffffffffffffff8111156200021d576200021c6200005f565b5b6200022b84828501620001b0565b91505092915050565b600081519050919050565b7f4e487b7100000000000000000000000000000000000000000000000000000000600052602260045260246000fd5b600060028204905060018216806200028757607f821691505b6020821081036200029d576200029c6200023f565b5b50919050565b60008190508160005260206000209050919050565b60006020601f8301049050919050565b600082821b905092915050565b600060088302620003077fffffffffffffffffffffffffffffffffffffffffffffffffffffffffffffffff82620002c8565b620003138683620002c8565b95508019841693508086168417925050509392505050565b6000819050919050565b6000819050919050565b6000620003606200035a62000354846200032b565b62000335565b6200032b565b9050919050565b6000819050919050565b6200037c836200033f565b620003946200038b8262000367565b848454620002d5565b825550505050565b600090565b620003ab6200039c565b620003b881848462000371565b505050565b5b81811015620003e057620003d4600082620003a1565b600181019050620003be565b5050565b601f8211156200042f57620003f981620002a3565b6200040484620002b8565b8101602085101562000414578190505b6200042c6200042385620002b8565b830182620003bd565b50505b505050565b600082821c905092915050565b6000620004546000198460080262000434565b1980831691505092915050565b60006200046f838362000441565b9150826002028217905092915050565b6200048a8262000234565b67ffffffffffffffff811115620004a657620004a56200007f565b5b620004b282546200026e565b620004bf828285620003e4565b600060209050601f831160018114620004f75760008415620004e2578287015190505b620004ee858262000461565b8655506200055e565b601f1984166200050786620002a3565b60005b8281101562000531578489015182556001820191506020850194506020810190506200050a565b868310156200055157848901516200054d601f89168262000441565b8355505b6001600288020188555050505b505050505050565b6102df80620005766000396000f3fe608060405234801561001057600080fd5b50600436106100365760003560e01c806319ff1d211461003b578063ef5fb05b14610059575b600080fd5b610043610077565b6040516100509190610227565b60405180910390f35b610061610105565b60405161006e9190610227565b60405180910390f35b6000805461008490610278565b80601f01602080910402602001604051908101604052809291908181526020018280546100b090610278565b80156100fd5780601f106100d2576101008083540402835291602001916100fd565b820191906000526020600020905b8154815290600101906020018083116100e057829003601f168201915b505050505081565b60606000805461011490610278565b80601f016020809104026020016040519081016040528092919081815260200182805461014090610278565b801561018d5780601f106101625761010080835404028352916020019161018d565b820191906000526020600020905b81548152906001019060200180831161017057829003601f168201915b5050505050905090565b600081519050919050565b600082825260208201905092915050565b60005b838110156101d15780820151818401526020810190506101b6565b60008484015250505050565b6000601f19601f8301169050919050565b60006101f982610197565b61020381856101a2565b93506102138185602086016101b3565b61021c816101dd565b840191505092915050565b6000602082019050818103600083015261024181846101ee565b905092915050565b7f4e487b7100000000000000000000000000000000000000000000000000000000600052602260045260246000fd5b6000600282049050600182168061029057607f821691505b6020821081036102a3576102a2610249565b5b5091905056fea26469706673582212206ad94369ddfdd00d2844735aac644520dc5391efa7284f51896d34e6fbe90e7164736f6c63430008130033a2646970667358221220f043e24cb1ed4e2ed162aabaa0e646229d60e38315f01f6a146abe05a9f7b39a64736f6c63430008130033",
  "immutableReferences": {},
  "source": "// SPDX-License-Identifier: MIT\npragma solidity >=0.4.22 <0.9.0;\n\nimport \"./Hello.sol\";\n\ncontract HelloFactory {\n  address[] public deployedHello;\n\n  function createHello(string memory tmp) public {\n    Hello newHello = new Hello(tmp);\n    deployedHello.push(address(newHello));\n  }\n\n  function getDeployedCampaigns() public view returns (address[] memory) {\n    return deployedHello;\n  }\n}\n",
  "sourcePath": "D:\\year4sem2\\evmos\\campaign\\cosmoprj\\contracts\\HelloFactory.sol",
  "compiler": {
    "name": "solc",
    "version": "0.8.19+commit.7dd6d404.Emscripten.clang"
  },
  "schemaVersion": "3.4.13",
  "updatedAt": "2023-04-16T10:34:02.197Z",
  "devdoc": {
    "kind": "dev",
    "methods": {},
    "version": 1
  },
  "userdoc": {
    "kind": "user",
    "methods": {},
    "version": 1
  }
}